:020000000C945E
:1000020035000C9400000C9400000C9400000C9439
:1000120000000C9400000C9400000C9400000C945E
:1000220000000C9400000C9400000C9400000C944E
:1000320000000C9400000C9400000C9400000C943E
:1000420000000C9400000C9400000C9400000C942E
:10005200000000003F0006005B004F0066006D00DC
:100062007D0007007F006F00F894EE27ECBBF1E003
:10007200FBBFEBBFE5BF8DE0A2E0BB27ED938A9506
:10008200E9F780E098E0A0E6ED930197E9F7EFE564
:10009200EDBFE8E0EEBFC0E6D2E00C945000A497BA
:1000A20086E1A0E0B0E0E4E5F0E00E94EA0100E0D1
:1000B20010E020E030E04CE050E0EFEFE4BBE1BBC9
:1000C200EFE0E8BB00E010E00C33E0E01E070CF0CC
:1000D2009AC0AFD0BDD0CBD0E0E0EAA3EBA3AAA1F7
:1000E200BBA159970CF08CC0B09903C0B09BFECF56
:1000F200CDD0A881B981119711F5B19904C0B19BF6
:10010200FECF4F5F5F4FB29904C0B29BFECF41500A
:100112005040EDE0F0E0E417F50711F441E050E063
:10012200042E052A11F44CE050E083D0B5D0C1D0A2
:10013200C4D0B09903C0B09BFECFA8D0DACFA881BB
:10014200B981129711F5B19904C0B19BFECF2F5F0F
:100152003F4FB29904C0B29BFECF21503040ECE336
:10016200F0E0E217F30711F420E030E0EFEFFFEFE9
:10017200E217F30711F42BE330E06AD0ABD0B09969
:1001820003C0B09BFECF82D0DACFA881B98113978A
:1001920041F5B19904C0B19BFECF0F5F1F4FB299D9
:1001A20004C0B29BFECF01501040ECE3F0E0E01738
:1001B200F10711F400E010E0EFEFFFEFE017F107B5
:1001C20011F40BE310E053D0A5D0A5E0B0E00E94FB
:1001D200A801B09905C0B09BFECFE0E0E883E983B7
:1001E200D4CF5AD0A5E0B0E00E94A80166D072D068
:1001F20091D05FD0EAA1FBA13196EAA3FBA36FCF16
:100202000F5F1F4F61CFF9012F5F3F4F9F01ECE35B
:10021200F0E0E217F30721F44F5F5F4F20E030E098
:10022200EDE0F0E0E417F50711F441E050E04ACFC9
:10023200FFCFDA01EAE0F0E00E94CE01EE8FFF8FFD
:10024200DA01EAE0F0E00E94C901E8A3F9A3089507
:10025200D901EAE0F0E00E94CE01EA8FFB8FD901DA
:10026200EAE0F0E00E94C901EC8FFD8F0895D80109
:10027200EAE0F0E00E94CE01EE8BFF8BD801EAE0CB
:10028200F0E00E94C901E88FF98F0895E881F981B1
:100292003196E883F9830895EEEFE2BBE8A1F9A174
:1002A200DE011296EE0FFF1FAE0FBF1FEC91E5BBF2
:1002B2000895AAE0B0E00C94A801EDEFE2BBEE8D48
:1002C200FF8DDE011296EE0FFF1FAE0FBF1FEC91E6
:1002D200E5BBEFCFEBEFE2BBEC8DFD8DDE011296BD
:1002E200EE0FFF1FAE0FBF1FEC91E5BBA5E0B0E024
:1002F2000E94A801E7EFE2BBEA8DFB8DDE011296B8
:10030200EE0FFF1FAE0FBF1FEC91E5BBA5E0B0E003
:100312000C94A801EFEEE2BBE88DF98DDE01129696
:10032200EE0FFF1FAE0FBF1FEC91E5BBA5E0B0E0E3
:100332000E94A801EFEDE2BBEE89FF89DE01129671
:10034200EE0FFF1FAE0FBF1FEC91E5BB0895109695
:1003520039F0A89580ED97E00197F1F71197C9F769
:100362000895F195E195F04008950024112490E15B
:10037200AA0FBB1F001C111C0E1A1F0A18F40E0E26
:100382001F1E01C0A1609A9599F7FD01D001089541
:1003920012D0EBDF0EF4E5DF0895E894B7FF04C056
:1003A200A095B09511966894F7FDDBDFDEDFFD01C5
:1003B2000EF4D7DF0895E894F7FF02C0D2DF689405
:1003C200B7FF06C0A095B095119600F8039400FA05
:1003D2000895AC0FBD1F05900D928A95E1F708951F
:00000001FF
